{
  "contractName": "SimpleStorage",
  "abi": [
    {
      "constant": false,
      "inputs": [
        {
          "name": "x",
          "type": "string"
        }
      ],
      "name": "set",
      "outputs": [],
      "payable": false,
      "stateMutability": "nonpayable",
      "type": "constructor"
    },
    {
      "constant": false,
      "inputs": [
        {
          "name": "_from",
          "type": "address",
          "indexed": true
        },
        {
          "indexed": false,
          "name": "value",
          "type": "string"
        }
      ],
      "name": "setValueEvent",
      "outputs": [
        {
          "name": "",
          "type": "string"
        }
      ],
      "payable": false,
      "stateMutability": "nonpayable",
      "type": "event",
      "anonymous": false
    },
    {
      "constant": false,
      "inputs": [
        {
          "name": "x",
          "type": "string"
        }
      ],
      "name": "setValue",
      "outputs": [
        {
          "name": "",
          "type": "string"
        }
      ],
      "payable": false,
      "stateMutability": "nonpayable",
      "type": "function"
    },
    {
      "constant": true,
      "inputs": [],
      "name": "getValue",
      "outputs": [
        {
          "name": "",
          "type": "string"
        }
      ],
      "payable": false,
      "stateMutability": "view",
      "type": "function"
    }
  ],
  "bytecode": "0x608060405234801561001057600080fd5b5060405161055e38038061055e8339810180604052602081101561003357600080fd5b81019080805164010000000081111561004b57600080fd5b8281019050602081018481111561006157600080fd5b815185600182028301116401000000008211171561007e57600080fd5b5050929190505050806000908051906020019061009c9291906100a3565b5050610148565b828054600181600116156101000203166002900490600052602060002090601f016020900481019282601f106100e457805160ff1916838001178555610112565b82800160010185558215610112579182015b828111156101115782518255916020019190600101906100f6565b5b50905061011f9190610123565b5090565b61014591905b80821115610141576000816000905550600101610129565b5090565b90565b610407806101576000396000f3fe60806040526004361061004c576000357c0100000000000000000000000000000000000000000000000000000000900463ffffffff168063209652551461005157806393a09352146100e1575b600080fd5b34801561005d57600080fd5b506100666101a9565b6040518080602001828103825283818151815260200191508051906020019080838360005b838110156100a657808201518184015260208101905061008b565b50505050905090810190601f1680156100d35780820380516001836020036101000a031916815260200191505b509250505060405180910390f35b3480156100ed57600080fd5b506101a76004803603602081101561010457600080fd5b810190808035906020019064010000000081111561012157600080fd5b82018360208201111561013357600080fd5b8035906020019184600183028401116401000000008311171561015557600080fd5b91908080601f016020809104026020016040519081016040528093929190818152602001838380828437600081840152601f19601f82011690508083019250505050505050919291929050505061024b565b005b606060008054600181600116156101000203166002900480601f0160208091040260200160405190810160405280929190818152602001828054600181600116156101000203166002900480156102415780601f1061021657610100808354040283529160200191610241565b820191906000526020600020905b81548152906001019060200180831161022457829003601f168201915b5050505050905090565b8060009080519060200190610261929190610336565b503373ffffffffffffffffffffffffffffffffffffffff167f1265af1cc0c5182f2ce3c8fcee98f362a5ec237a1c42bef504a9d6a369701e3e600060405180806020018281038252838181546001816001161561010002031660029004815260200191508054600181600116156101000203166002900480156103255780601f106102fa57610100808354040283529160200191610325565b820191906000526020600020905b81548152906001019060200180831161030857829003601f168201915b50509250505060405180910390a250565b828054600181600116156101000203166002900490600052602060002090601f016020900481019282601f1061037757805160ff19168380011785556103a5565b828001600101855582156103a5579182015b828111156103a4578251825591602001919060010190610389565b5b5090506103b291906103b6565b5090565b6103d891905b808211156103d45760008160009055506001016103bc565b5090565b9056fea165627a7a72305820e25b0b526028910882bae6892f2e47ab9eac911d81e4fd5b5f01310a95399d4c0029",
  "source": "pragma solidity ^0.5.0;\n//truffle compile\n//truffle migrate --reset\n\n\n/// @title A simple storage contract\n/// @author Joseph Oreste\n/// @dev natspec\n\ncontract SimpleStorage {\n/*\n  uint storedData;\n\n  function set(uint x) public {\n    storedData = x;\n  }\n\n  function get() public view returns (uint) {\n    return storedData;\n  }\n  */\nstring storeData;\n\nconstructor(string memory x) public {\n  storeData = x;\n}\n\nevent setValueEvent(\n  address indexed _from,\n  string value\n);\n\n/// @param x the new value to store\n/// @return no return\nfunction setValue(string memory x) public {\n  storeData = x;\n  emit setValueEvent(msg.sender, storeData);\n}\n\nfunction getValue() public view returns (string memory) {\n  return storeData;\n}\n\n}\n",
  "sourcePath": "/Users/joe/Documents/truffle/projects/react-dapp/contracts/SimpleStorage.sol",
  "compiler": {
    "name": "solc",
    "version": "0.5.0+commit.1d4f565a.Emscripten.clang"
  },
  "schemaVersion": "3.0.9",
  "updatedAt": "2019-09-13T17:47:44.759Z",
  "devdoc": {
    "methods": {
      "set(string)": {
        "params": {
          "x": "the new value to store"
        },
        "return": "no return"
      },
      "setValue(string)": {
        "params": {
          "x": "the new value to store"
        },
        "return": "no return"
      }
    },
    "author": "Joseph Oreste",
    "details": "natspec",
    "title": "A simple storage contract"
  },
  "userdoc": {
    "methods": {}
  }
}